{
  "contractName": "LarTokenCrowdsale",
  "abi": [
    {
      "constant": true,
      "inputs": [],
      "name": "hasClosed",
      "outputs": [
        {
          "name": "",
          "type": "bool"
        }
      ],
      "payable": false,
      "stateMutability": "view",
      "type": "function"
    },
    {
      "constant": true,
      "inputs": [],
      "name": "rate",
      "outputs": [
        {
          "name": "",
          "type": "uint256"
        }
      ],
      "payable": false,
      "stateMutability": "view",
      "type": "function"
    },
    {
      "constant": true,
      "inputs": [],
      "name": "cap",
      "outputs": [
        {
          "name": "",
          "type": "uint256"
        }
      ],
      "payable": false,
      "stateMutability": "view",
      "type": "function"
    },
    {
      "constant": true,
      "inputs": [],
      "name": "goal",
      "outputs": [
        {
          "name": "",
          "type": "uint256"
        }
      ],
      "payable": false,
      "stateMutability": "view",
      "type": "function"
    },
    {
      "constant": true,
      "inputs": [],
      "name": "weiRaised",
      "outputs": [
        {
          "name": "",
          "type": "uint256"
        }
      ],
      "payable": false,
      "stateMutability": "view",
      "type": "function"
    },
    {
      "constant": true,
      "inputs": [],
      "name": "isOpen",
      "outputs": [
        {
          "name": "",
          "type": "bool"
        }
      ],
      "payable": false,
      "stateMutability": "view",
      "type": "function"
    },
    {
      "constant": true,
      "inputs": [],
      "name": "closingTime",
      "outputs": [
        {
          "name": "",
          "type": "uint256"
        }
      ],
      "payable": false,
      "stateMutability": "view",
      "type": "function"
    },
    {
      "constant": false,
      "inputs": [],
      "name": "finalize",
      "outputs": [],
      "payable": false,
      "stateMutability": "nonpayable",
      "type": "function"
    },
    {
      "constant": true,
      "inputs": [],
      "name": "capReached",
      "outputs": [
        {
          "name": "",
          "type": "bool"
        }
      ],
      "payable": false,
      "stateMutability": "view",
      "type": "function"
    },
    {
      "constant": true,
      "inputs": [],
      "name": "wallet",
      "outputs": [
        {
          "name": "",
          "type": "address"
        }
      ],
      "payable": false,
      "stateMutability": "view",
      "type": "function"
    },
    {
      "constant": true,
      "inputs": [],
      "name": "goalReached",
      "outputs": [
        {
          "name": "",
          "type": "bool"
        }
      ],
      "payable": false,
      "stateMutability": "view",
      "type": "function"
    },
    {
      "constant": true,
      "inputs": [],
      "name": "finalized",
      "outputs": [
        {
          "name": "",
          "type": "bool"
        }
      ],
      "payable": false,
      "stateMutability": "view",
      "type": "function"
    },
    {
      "constant": true,
      "inputs": [],
      "name": "openingTime",
      "outputs": [
        {
          "name": "",
          "type": "uint256"
        }
      ],
      "payable": false,
      "stateMutability": "view",
      "type": "function"
    },
    {
      "constant": false,
      "inputs": [
        {
          "name": "refundee",
          "type": "address"
        }
      ],
      "name": "claimRefund",
      "outputs": [],
      "payable": false,
      "stateMutability": "nonpayable",
      "type": "function"
    },
    {
      "constant": false,
      "inputs": [
        {
          "name": "beneficiary",
          "type": "address"
        }
      ],
      "name": "buyTokens",
      "outputs": [],
      "payable": true,
      "stateMutability": "payable",
      "type": "function"
    },
    {
      "constant": true,
      "inputs": [],
      "name": "token",
      "outputs": [
        {
          "name": "",
          "type": "address"
        }
      ],
      "payable": false,
      "stateMutability": "view",
      "type": "function"
    },
    {
      "inputs": [
        {
          "name": "_rate",
          "type": "uint256"
        },
        {
          "name": "_wallet",
          "type": "address"
        },
        {
          "name": "_token",
          "type": "address"
        },
        {
          "name": "_cap",
          "type": "uint256"
        },
        {
          "name": "_openingTime",
          "type": "uint256"
        },
        {
          "name": "_closingTime",
          "type": "uint256"
        },
        {
          "name": "_goal",
          "type": "uint256"
        }
      ],
      "payable": false,
      "stateMutability": "nonpayable",
      "type": "constructor"
    },
    {
      "payable": true,
      "stateMutability": "payable",
      "type": "fallback"
    },
    {
      "anonymous": false,
      "inputs": [],
      "name": "CrowdsaleFinalized",
      "type": "event"
    },
    {
      "anonymous": false,
      "inputs": [
        {
          "indexed": false,
          "name": "prevClosingTime",
          "type": "uint256"
        },
        {
          "indexed": false,
          "name": "newClosingTime",
          "type": "uint256"
        }
      ],
      "name": "TimedCrowdsaleExtended",
      "type": "event"
    },
    {
      "anonymous": false,
      "inputs": [
        {
          "indexed": true,
          "name": "purchaser",
          "type": "address"
        },
        {
          "indexed": true,
          "name": "beneficiary",
          "type": "address"
        },
        {
          "indexed": false,
          "name": "value",
          "type": "uint256"
        },
        {
          "indexed": false,
          "name": "amount",
          "type": "uint256"
        }
      ],
      "name": "TokensPurchased",
      "type": "event"
    }
  ],
  "bytecode": "0x60806040523480156200001157600080fd5b5060405160e08062002083833981018060405260e08110156200003357600080fd5b508051602082015160408301516060840151608085015160a086015160c0909601516000805460ff191660011790559495939492939192909190808383868a8a8a821515620000e357604080517f08c379a000000000000000000000000000000000000000000000000000000000815260206004820152601460248201527f43726f776473616c653a20726174652069732030000000000000000000000000604482015290519081900360640190fd5b6001600160a01b038216151562000146576040517f08c379a00000000000000000000000000000000000000000000000000000000081526004018080602001828103825260258152602001806200202e6025913960400191505060405180910390fd5b6001600160a01b0381161515620001a9576040517f08c379a00000000000000000000000000000000000000000000000000000000081526004018080602001828103825260248152602001806200200a6024913960400191505060405180910390fd5b600292909255600180546001600160a01b039283166001600160a01b0319909116179055600080549190921661010002610100600160a81b03199091161790558015156200025857604080517f08c379a000000000000000000000000000000000000000000000000000000000815260206004820152601960248201527f43617070656443726f776473616c653a20636170206973203000000000000000604482015290519081900360640190fd5b60045542821015620002b6576040517f08c379a000000000000000000000000000000000000000000000000000000000815260040180806020018281038252603381526020018062001fa06033913960400191505060405180910390fd5b81811162000310576040517f08c379a000000000000000000000000000000000000000000000000000000000815260040180806020018281038252603781526020018062001fd36037913960400191505060405180910390fd5b6005919091556006556007805460ff191690558015156200039257604080517f08c379a000000000000000000000000000000000000000000000000000000000815260206004820152601e60248201527f526566756e6461626c6543726f776473616c653a20676f616c20697320300000604482015290519081900360640190fd5b620003a26200047960201b60201c565b604051620003b09062000488565b6001600160a01b03909116815260405190819003602001906000f080158015620003de573d6000803e3d6000fd5b50600980546001600160a01b03199081166001600160a01b0393841617909155600892909255600a8054909216908716179055838111156200046c576040517f08c379a0000000000000000000000000000000000000000000000000000000008152600401808060200182810382526030815260200180620020536030913960400191505060405180910390fd5b5050505050505062000496565b6001546001600160a01b031690565b610e26806200117a83390190565b610cd480620004a66000396000f3fe6080604052600436106100f35760003560e01c80634f9359451161008a578063b7a8807c11610059578063b7a8807c14610243578063bffa55d514610258578063ec8ac4d81461028b578063fc0c546a146102b1576100f3565b80634f935945146101d3578063521eb273146101e85780637d3d652214610219578063b3f05b971461022e576100f3565b80634042b66f116100c65780634042b66f1461017f57806347535d7b146101945780634b6753bc146101a95780634bb278f3146101be576100f3565b80631515bc2b146101055780632c4e722e1461012e578063355274ea14610155578063401938831461016a575b6101036100fe6102c6565b6102ca565b005b34801561011157600080fd5b5061011a6103f1565b604080519115158252519081900360200190f35b34801561013a57600080fd5b506101436103f9565b60408051918252519081900360200190f35b34801561016157600080fd5b506101436103ff565b34801561017657600080fd5b50610143610405565b34801561018b57600080fd5b5061014361040b565b3480156101a057600080fd5b5061011a610411565b3480156101b557600080fd5b5061014361042c565b3480156101ca57600080fd5b50610103610432565b3480156101df57600080fd5b5061011a610515565b3480156101f457600080fd5b506101fd610529565b604080516001600160a01b039092168252519081900360200190f35b34801561022557600080fd5b5061011a610538565b34801561023a57600080fd5b5061011a610545565b34801561024f57600080fd5b5061014361054e565b34801561026457600080fd5b506101036004803603602081101561027b57600080fd5b50356001600160a01b0316610554565b610103600480360360208110156102a157600080fd5b50356001600160a01b03166102ca565b3480156102bd57600080fd5b506101fd61064f565b3390565b60005460ff1615156103265760408051600160e51b62461bcd02815260206004820152601f60248201527f5265656e7472616e637947756172643a207265656e7472616e742063616c6c00604482015290519081900360640190fd5b6000805460ff191690553461033b8282610663565b6000610346826106cf565b60035490915061035c908363ffffffff6106ec16565b6003556103698382610750565b826001600160a01b031661037b6102c6565b6001600160a01b03167f6faf93231a456e552dbc9961f58d9713ee4f2e69d15f1975b050ef0911053a7b8484604051808381526020018281526020019250505060405180910390a36103cd83836106cb565b6103d561075a565b6103df83836106cb565b50506000805460ff1916600117905550565b600654421190565b60025490565b60045490565b60085490565b60035490565b6000600554421015801561042757506006544211155b905090565b60065490565b60075460ff161561047757604051600160e51b62461bcd028152600401808060200182810382526027815260200180610c156027913960400191505060405180910390fd5b61047f6103f1565b15156104d55760408051600160e51b62461bcd02815260206004820181905260248201527f46696e616c697a61626c6543726f776473616c653a206e6f7420636c6f736564604482015290519081900360640190fd5b6007805460ff191660011790556104ea6107bb565b6040517f9270cc390c096600a1c17c44345a1ba689fafd99d97487b10cfccf86cf73183690600090a1565b600060045461052261040b565b1015905090565b6001546001600160a01b031690565b600060085461052261040b565b60075460ff1690565b60055490565b61055c610545565b151561059c57604051600160e51b62461bcd028152600401808060200182810382526022815260200180610c876022913960400191505060405180910390fd5b6105a4610538565b156105e357604051600160e51b62461bcd028152600401808060200182810382526021815260200180610c3c6021913960400191505060405180910390fd5b60095460408051600160e01b6351cff8d90281526001600160a01b038481166004830152915191909216916351cff8d991602480830192600092919082900301818387803b15801561063457600080fd5b505af1158015610648573d6000803e3d6000fd5b5050505050565b60005461010090046001600160a01b031690565b61066b610411565b15156106c15760408051600160e51b62461bcd02815260206004820152601860248201527f54696d656443726f776473616c653a206e6f74206f70656e0000000000000000604482015290519081900360640190fd5b6106cb828261083b565b5050565b60006106e6600254836108b690919063ffffffff16565b92915050565b6000828201838110156107495760408051600160e51b62461bcd02815260206004820152601b60248201527f536166654d6174683a206164646974696f6e206f766572666c6f770000000000604482015290519081900360640190fd5b9392505050565b6106cb8282610916565b6009546001600160a01b031663f340fa01346107746102c6565b6040518363ffffffff1660e01b815260040180826001600160a01b03166001600160a01b031681526020019150506000604051808303818588803b15801561063457600080fd5b6107c3610538565b1561083157600a60009054906101000a90046001600160a01b03166001600160a01b0316633f4ba83a6040518163ffffffff1660e01b8152600401600060405180830381600087803b15801561081857600080fd5b505af115801561082c573d6000803e3d6000fd5b505050505b6108396109ff565b565b6108458282610b52565b6004546108608261085461040b565b9063ffffffff6106ec16565b11156106cb5760408051600160e51b62461bcd02815260206004820152601d60248201527f43617070656443726f776473616c653a20636170206578636565646564000000604482015290519081900360640190fd5b60008215156108c7575060006106e6565b8282028284828115156108d657fe5b041461074957604051600160e51b62461bcd028152600401808060200182810382526021815260200180610bf46021913960400191505060405180910390fd5b61091e61064f565b6001600160a01b03166340c10f1983836040518363ffffffff1660e01b815260040180836001600160a01b03166001600160a01b0316815260200182815260200192505050602060405180830381600087803b15801561097d57600080fd5b505af1158015610991573d6000803e3d6000fd5b505050506040513d60208110156109a757600080fd5b505115156106cb5760408051600160e51b62461bcd02815260206004820152601f60248201527f4d696e74656443726f776473616c653a206d696e74696e67206661696c656400604482015290519081900360640190fd5b610a07610538565b15610ae157600960009054906101000a90046001600160a01b03166001600160a01b03166343d726d66040518163ffffffff1660e01b8152600401600060405180830381600087803b158015610a5c57600080fd5b505af1158015610a70573d6000803e3d6000fd5b50505050600960009054906101000a90046001600160a01b03166001600160a01b0316639af6549a6040518163ffffffff1660e01b8152600401600060405180830381600087803b158015610ac457600080fd5b505af1158015610ad8573d6000803e3d6000fd5b50505050610b4a565b600960009054906101000a90046001600160a01b03166001600160a01b0316638c52dc416040518163ffffffff1660e01b8152600401600060405180830381600087803b158015610b3157600080fd5b505af1158015610b45573d6000803e3d6000fd5b505050505b610839610839565b6001600160a01b0382161515610b9c57604051600160e51b62461bcd02815260040180806020018281038252602a815260200180610c5d602a913960400191505060405180910390fd5b8015156106cb5760408051600160e51b62461bcd02815260206004820152601960248201527f43726f776473616c653a20776569416d6f756e74206973203000000000000000604482015290519081900360640190fdfe536166654d6174683a206d756c7469706c69636174696f6e206f766572666c6f7746696e616c697a61626c6543726f776473616c653a20616c72656164792066696e616c697a6564526566756e6461626c6543726f776473616c653a20676f616c207265616368656443726f776473616c653a2062656e656669636961727920697320746865207a65726f2061646472657373526566756e6461626c6543726f776473616c653a206e6f742066696e616c697a6564a165627a7a72305820d349c99957da598522e8f5168d4f6ac6e49f95b00a7a018d246217482cd8c82d0029608060405234801561001057600080fd5b50604051602080610e268339810180604052602081101561003057600080fd5b5051600061004361012a602090811b901c565b600080546001600160a01b0383166001600160a01b0319909116811790915560408051918252519192507f4101e71e974f68df5e9730cc223280b41654676bbb052cdcc735c3337e64d2d9919081900360200190a1506001600160a01b03811615156100fa576040517f08c379a000000000000000000000000000000000000000000000000000000000815260040180806020018281038252602d815260200180610df9602d913960400191505060405180910390fd5b6002805460ff196001600160a01b039390931661010002610100600160a81b03199091161791909116905561012e565b3390565b610cbc8061013d6000396000f3fe6080604052600436106100a75760003560e01c80638c52dc41116100645780638c52dc41146101d45780639af6549a146101e9578063c19d93fb146101fe578063c6dbdf6114610237578063e3a9db1a1461024c578063f340fa0114610291576100a7565b80632348238c146100ac57806338af3eed146100e157806343d726d61461011257806351cff8d9146101275780636809691a1461015a578063685ca1941461018d575b600080fd5b3480156100b857600080fd5b506100df600480360360208110156100cf57600080fd5b50356001600160a01b03166102b7565b005b3480156100ed57600080fd5b506100f66103b1565b604080516001600160a01b039092168252519081900360200190f35b34801561011e57600080fd5b506100df6103c5565b34801561013357600080fd5b506100df6004803603602081101561014a57600080fd5b50356001600160a01b03166104aa565b34801561016657600080fd5b506100df6004803603602081101561017d57600080fd5b50356001600160a01b03166104ff565b34801561019957600080fd5b506101c0600480360360208110156101b057600080fd5b50356001600160a01b03166105cc565b604080519115158252519081900360200190f35b3480156101e057600080fd5b506100df6105e8565b3480156101f557600080fd5b506100df6106ce565b34801561020a57600080fd5b5061021361075f565b6040518082600281111561022357fe5b60ff16815260200191505060405180910390f35b34801561024357600080fd5b506100f6610768565b34801561025857600080fd5b5061027f6004803603602081101561026f57600080fd5b50356001600160a01b0316610777565b60408051918252519081900360200190f35b6100df600480360360208110156102a757600080fd5b50356001600160a01b0316610792565b6000546001600160a01b03166102cb6107ed565b6001600160a01b03161461031357604051600160e51b62461bcd02815260040180806020018281038252602c815260200180610c33602c913960400191505060405180910390fd5b6001600160a01b038116151561035d57604051600160e51b62461bcd02815260040180806020018281038252602a815260200180610c09602a913960400191505060405180910390fd5b600080546001600160a01b0383166001600160a01b0319909116811790915560408051918252517f4101e71e974f68df5e9730cc223280b41654676bbb052cdcc735c3337e64d2d99181900360200190a150565b60025461010090046001600160a01b031690565b6000546001600160a01b03166103d96107ed565b6001600160a01b03161461042157604051600160e51b62461bcd02815260040180806020018281038252602c815260200180610c33602c913960400191505060405180910390fd5b60006002805460ff169081111561043457fe5b1461047357604051600160e51b62461bcd028152600401808060200182810382526029815260200180610be06029913960400191505060405180910390fd5b6002805460ff1916811790556040517f088672c3a6e342f7cd94a65ba63b79df24a8973927b4d05d803c44bbf787d12f90600090a1565b6104b3816105cc565b15156104f357604051600160e51b62461bcd028152600401808060200182810382526033815260200180610bad6033913960400191505060405180910390fd5b6104fc816107f1565b50565b6000546001600160a01b03166105136107ed565b6001600160a01b03161461055b57604051600160e51b62461bcd02815260040180806020018281038252602c815260200180610c33602c913960400191505060405180910390fd5b6001600160a01b0381166000818152600160205260408120805491905590610589908263ffffffff6108db16565b6040805182815290516001600160a01b038416917f7084f5476618d8e60b11ef0d7d3f06914655adb8793e28ff7f018d4c76d505d5919081900360200190a25050565b600060016002805460ff16908111156105e157fe5b1492915050565b6000546001600160a01b03166105fc6107ed565b6001600160a01b03161461064457604051600160e51b62461bcd02815260040180806020018281038252602c815260200180610c33602c913960400191505060405180910390fd5b60006002805460ff169081111561065757fe5b1461069657604051600160e51b62461bcd028152600401808060200182810382526032815260200180610c5f6032913960400191505060405180910390fd5b6002805460ff191660011790556040517f599d8e5a83cffb867d051598c4d70e805d59802d8081c1c7d6dffc5b6aca2b8990600090a1565b6002805460ff16818111156106df57fe5b1461071e57604051600160e51b62461bcd028152600401808060200182810382526038815260200180610b106038913960400191505060405180910390fd5b6002546040516001600160a01b036101009092049190911690303180156108fc02916000818181858888f193505050501580156104fc573d6000803e3d6000fd5b60025460ff1690565b6000546001600160a01b031690565b6001600160a01b031660009081526001602052604090205490565b60006002805460ff16908111156107a557fe5b146107e457604051600160e51b62461bcd02815260040180806020018281038252602b815260200180610b82602b913960400191505060405180910390fd5b6104fc816109ce565b3390565b6000546001600160a01b03166108056107ed565b6001600160a01b03161461084d57604051600160e51b62461bcd02815260040180806020018281038252602c815260200180610c33602c913960400191505060405180910390fd5b6001600160a01b038116600081815260016020526040808220805490839055905190929183156108fc02918491818181858888f19350505050158015610897573d6000803e3d6000fd5b506040805182815290516001600160a01b038416917f7084f5476618d8e60b11ef0d7d3f06914655adb8793e28ff7f018d4c76d505d5919081900360200190a25050565b30318111156109345760408051600160e51b62461bcd02815260206004820152601d60248201527f416464726573733a20696e73756666696369656e742062616c616e6365000000604482015290519081900360640190fd5b6040516000906001600160a01b0384169083908381818185875af1925050503d806000811461097f576040519150601f19603f3d011682016040523d82523d6000602084013e610984565b606091505b505090508015156109c957604051600160e51b62461bcd02815260040180806020018281038252603a815260200180610b48603a913960400191505060405180910390fd5b505050565b6000546001600160a01b03166109e26107ed565b6001600160a01b031614610a2a57604051600160e51b62461bcd02815260040180806020018281038252602c815260200180610c33602c913960400191505060405180910390fd5b6001600160a01b0381166000908152600160205260409020543490610a55908263ffffffff610aab16565b6001600160a01b038316600081815260016020908152604091829020939093558051848152905191927f2da466a7b24304f47e87fa2e1e5a81b9831ce54fec19055ce277ca2f39ba42c492918290030190a25050565b600082820183811015610b085760408051600160e51b62461bcd02815260206004820152601b60248201527f536166654d6174683a206164646974696f6e206f766572666c6f770000000000604482015290519081900360640190fd5b939250505056fe526566756e64457363726f773a2062656e65666963696172792063616e206f6e6c79207769746864726177207768696c6520636c6f736564416464726573733a20756e61626c6520746f2073656e642076616c75652c20726563697069656e74206d61792068617665207265766572746564526566756e64457363726f773a2063616e206f6e6c79206465706f736974207768696c6520616374697665436f6e646974696f6e616c457363726f773a207061796565206973206e6f7420616c6c6f77656420746f207769746864726177526566756e64457363726f773a2063616e206f6e6c7920636c6f7365207768696c65206163746976655365636f6e646172793a206e6577207072696d61727920697320746865207a65726f20616464726573735365636f6e646172793a2063616c6c6572206973206e6f7420746865207072696d617279206163636f756e74526566756e64457363726f773a2063616e206f6e6c7920656e61626c6520726566756e6473207768696c6520616374697665a165627a7a72305820886f4262a28abc4f239dcf3d098dc0c09e3af4b10f54abdc3ed33b37b60730f80029526566756e64457363726f773a2062656e656669636961727920697320746865207a65726f206164647265737354696d656443726f776473616c653a206f70656e696e672074696d65206973206265666f72652063757272656e742074696d6554696d656443726f776473616c653a206f70656e696e672074696d65206973206e6f74206265666f726520636c6f73696e672074696d6543726f776473616c653a20746f6b656e20697320746865207a65726f206164647265737343726f776473616c653a2077616c6c657420697320746865207a65726f2061646472657373596f757220676f616c2063616e6e6f742062652067726561746572207468616e20746865206d6178696d756d20636170",
  "source": "pragma solidity ^0.5.0;\r\n\r\nimport \"@openzeppelin/contracts/crowdsale/Crowdsale.sol\";\r\nimport \"@openzeppelin/contracts/crowdsale/emission/MintedCrowdsale.sol\";\r\nimport \"@openzeppelin/contracts/crowdsale/validation/CappedCrowdsale.sol\";\r\nimport \"@openzeppelin/contracts/crowdsale/validation/TimedCrowdsale.sol\";\r\nimport \"@openzeppelin/contracts/crowdsale/distribution/RefundableCrowdsale.sol\";\r\nimport \"@openzeppelin/contracts/token/ERC20/ERC20Mintable.sol\";\r\nimport \"@openzeppelin/contracts/token/ERC20/ERC20Pausable.sol\";\r\nimport \"@openzeppelin/contracts/token/ERC20/IERC20.sol\";\r\n\r\n\r\n// import \"openzeppelin-solidity/contracts/crowdsale/Crowdsale.sol\";\r\n// import \"openzeppelin-solidity/contracts/crowdsale/emission/MintedCrowdsale.sol\";\r\n// import \"openzeppelin-solidity/contracts/crowdsale/validation/CappedCrowdsale.sol\";\r\n// import \"openzeppelin-solidity/contracts/crowdsale/validation/TimedCrowdsale.sol\";\r\n// import \"openzeppelin-solidity/contracts/crowdsale/distribution/RefundableCrowdsale.sol\";\r\n// import \"openzeppelin-solidity/contracts/token/ERC20/MintableToken.sol\";\r\n// import \"openzeppelin-solidity/contracts/token/ERC20/PausableToken.sol\";\r\n\r\n\r\n\r\n\r\ncontract LarTokenCrowdsale is Crowdsale, MintedCrowdsale, CappedCrowdsale, TimedCrowdsale, RefundableCrowdsale {\r\n\r\n  address tokenAddress;\r\n\r\n  constructor(\r\n    uint256 _rate,\r\n    address payable _wallet,\r\n    ERC20 _token,\r\n    uint256 _cap,\r\n    uint256 _openingTime,\r\n    uint256 _closingTime,\r\n    uint256 _goal\r\n  )\r\n    Crowdsale(_rate, _wallet, _token)\r\n    CappedCrowdsale(_cap)\r\n    TimedCrowdsale(_openingTime, _closingTime)\r\n    RefundableCrowdsale(_goal)\r\n    public\r\n  {\r\n    tokenAddress = address(_token);\r\n    require(_goal <= _cap, \"Your goal cannot be greater than the maximum cap\");\r\n\r\n  }\r\n\r\n   /**\r\n   * @dev enables token transfers, called when owner calls finalize()\r\n  */\r\n  function _finalization() internal {\r\n    // Any functionality after the end of the crowdsale is added here.\r\n    if(goalReached()) {\r\n\r\n      // Unpause the token\r\n      ERC20Pausable(tokenAddress).unpause();\r\n\r\n    }\r\n\r\n    super._finalization();\r\n  }\r\n\r\n}",
  "sourcePath": "C:/Users/LanreAkintayo/Visual Studio code projects/crowdsale_bsc/contracts/LARTokenCrowdsale.sol",
  "compiler": {
    "name": "solc",
    "version": "0.5.5+commit.47a71e8f.Emscripten.clang"
  },
  "schemaVersion": "3.0.2",
  "updatedAt": "2022-04-30T14:49:21.218Z",
  "devdoc": {
    "methods": {
      "buyTokens(address)": {
        "details": "low level token purchase ***DO NOT OVERRIDE*** This function has a non-reentrancy guard, so it shouldn't be called by another `nonReentrant` function.",
        "params": {
          "beneficiary": "Recipient of the token purchase"
        }
      },
      "cap()": {
        "return": "the cap of the crowdsale."
      },
      "capReached()": {
        "details": "Checks whether the cap has been reached.",
        "return": "Whether the cap was reached"
      },
      "claimRefund(address)": {
        "details": "Investors can claim refunds here if crowdsale is unsuccessful.",
        "params": {
          "refundee": "Whose refund will be claimed."
        }
      },
      "closingTime()": {
        "return": "the crowdsale closing time."
      },
      "finalize()": {
        "details": "Must be called after crowdsale ends, to do some extra finalization work. Calls the contract's finalization function."
      },
      "finalized()": {
        "return": "true if the crowdsale is finalized, false otherwise."
      },
      "goal()": {
        "return": "minimum amount of funds to be raised in wei."
      },
      "goalReached()": {
        "details": "Checks whether funding goal was reached.",
        "return": "Whether funding goal was reached"
      },
      "hasClosed()": {
        "details": "Checks whether the period in which the crowdsale is open has already elapsed.",
        "return": "Whether crowdsale period has elapsed"
      },
      "isOpen()": {
        "return": "true if the crowdsale is open, false otherwise."
      },
      "openingTime()": {
        "return": "the crowdsale opening time."
      },
      "rate()": {
        "return": "the number of token units a buyer gets per wei."
      },
      "token()": {
        "return": "the token being sold."
      },
      "wallet()": {
        "return": "the address where funds are collected."
      },
      "weiRaised()": {
        "return": "the amount of wei raised."
      }
    }
  },
  "userdoc": {
    "methods": {}
  }
}